{
  "contractName": "CommunityImprovement",
  "abi": [
    {
      "constant": true,
      "inputs": [
        {
          "name": "",
          "type": "uint256"
        }
      ],
      "name": "proposals",
      "outputs": [
        {
          "name": "name",
          "type": "string"
        },
        {
          "name": "description",
          "type": "string"
        }
      ],
      "payable": false,
      "stateMutability": "view",
      "type": "function"
    },
    {
      "constant": false,
      "inputs": [
        {
          "name": "account",
          "type": "address"
        }
      ],
      "name": "removeWhitelisted",
      "outputs": [],
      "payable": false,
      "stateMutability": "nonpayable",
      "type": "function"
    },
    {
      "constant": true,
      "inputs": [
        {
          "name": "account",
          "type": "address"
        }
      ],
      "name": "isWhitelisted",
      "outputs": [
        {
          "name": "",
          "type": "bool"
        }
      ],
      "payable": false,
      "stateMutability": "view",
      "type": "function"
    },
    {
      "constant": false,
      "inputs": [],
      "name": "renounceWhitelistAdmin",
      "outputs": [],
      "payable": false,
      "stateMutability": "nonpayable",
      "type": "function"
    },
    {
      "constant": false,
      "inputs": [
        {
          "name": "account",
          "type": "address"
        }
      ],
      "name": "addWhitelistAdmin",
      "outputs": [],
      "payable": false,
      "stateMutability": "nonpayable",
      "type": "function"
    },
    {
      "constant": true,
      "inputs": [
        {
          "name": "account",
          "type": "address"
        }
      ],
      "name": "isWhitelistAdmin",
      "outputs": [
        {
          "name": "",
          "type": "bool"
        }
      ],
      "payable": false,
      "stateMutability": "view",
      "type": "function"
    },
    {
      "constant": false,
      "inputs": [],
      "name": "renounceWhitelisted",
      "outputs": [],
      "payable": false,
      "stateMutability": "nonpayable",
      "type": "function"
    },
    {
      "inputs": [],
      "payable": false,
      "stateMutability": "nonpayable",
      "type": "constructor"
    },
    {
      "anonymous": false,
      "inputs": [
        {
          "indexed": true,
          "name": "account",
          "type": "address"
        }
      ],
      "name": "WhitelistedAdded",
      "type": "event"
    },
    {
      "anonymous": false,
      "inputs": [
        {
          "indexed": true,
          "name": "account",
          "type": "address"
        }
      ],
      "name": "WhitelistedRemoved",
      "type": "event"
    },
    {
      "anonymous": false,
      "inputs": [
        {
          "indexed": true,
          "name": "account",
          "type": "address"
        }
      ],
      "name": "WhitelistAdminAdded",
      "type": "event"
    },
    {
      "anonymous": false,
      "inputs": [
        {
          "indexed": true,
          "name": "account",
          "type": "address"
        }
      ],
      "name": "WhitelistAdminRemoved",
      "type": "event"
    },
    {
      "constant": false,
      "inputs": [
        {
          "name": "name",
          "type": "string"
        },
        {
          "name": "description",
          "type": "string"
        }
      ],
      "name": "addProposal",
      "outputs": [],
      "payable": false,
      "stateMutability": "nonpayable",
      "type": "function"
    },
    {
      "constant": true,
      "inputs": [
        {
          "name": "index",
          "type": "uint32"
        }
      ],
      "name": "getProposal",
      "outputs": [
        {
          "name": "",
          "type": "string"
        }
      ],
      "payable": false,
      "stateMutability": "view",
      "type": "function"
    },
    {
      "constant": false,
      "inputs": [
        {
          "name": "account",
          "type": "address"
        }
      ],
      "name": "addWhitelisted",
      "outputs": [],
      "payable": false,
      "stateMutability": "nonpayable",
      "type": "function"
    },
    {
      "constant": false,
      "inputs": [
        {
          "name": "size",
          "type": "uint256"
        }
      ],
      "name": "setCommunitySize",
      "outputs": [],
      "payable": false,
      "stateMutability": "nonpayable",
      "type": "function"
    },
    {
      "constant": true,
      "inputs": [],
      "name": "getNumberOfWhitelisted",
      "outputs": [
        {
          "name": "",
          "type": "uint256"
        }
      ],
      "payable": false,
      "stateMutability": "view",
      "type": "function"
    },
    {
      "constant": false,
      "inputs": [
        {
          "name": "start",
          "type": "uint256"
        },
        {
          "name": "end",
          "type": "uint256"
        }
      ],
      "name": "setLotteryTimeframe",
      "outputs": [
        {
          "name": "",
          "type": "bool"
        }
      ],
      "payable": false,
      "stateMutability": "nonpayable",
      "type": "function"
    },
    {
      "constant": true,
      "inputs": [],
      "name": "currentTime",
      "outputs": [
        {
          "name": "",
          "type": "uint256"
        }
      ],
      "payable": false,
      "stateMutability": "view",
      "type": "function"
    },
    {
      "constant": true,
      "inputs": [],
      "name": "lotteryDraft",
      "outputs": [
        {
          "name": "",
          "type": "string"
        }
      ],
      "payable": false,
      "stateMutability": "view",
      "type": "function"
    }
  ],
  "bytecode": "0x608060405234801561001057600080fd5b506100203361006360201b60201c565b6000600260006101000a81548160ff02191690831515021790555060006007819055506000600560006101000a81548160ff021916908315150217905550610281565b61007b8160006100c160201b6111711790919060201c565b8073ffffffffffffffffffffffffffffffffffffffff167f22380c05984257a1cb900161c713dd71d39e74820f1aea43bd3f1bdd2096129960405160405180910390a250565b6100d182826101a260201b60201c565b15610144576040517f08c379a000000000000000000000000000000000000000000000000000000000815260040180806020018281038252601f8152602001807f526f6c65733a206163636f756e7420616c72656164792068617320726f6c650081525060200191505060405180910390fd5b60018260000160008373ffffffffffffffffffffffffffffffffffffffff1673ffffffffffffffffffffffffffffffffffffffff16815260200190815260200160002060006101000a81548160ff0219169083151502179055505050565b60008073ffffffffffffffffffffffffffffffffffffffff168273ffffffffffffffffffffffffffffffffffffffff16141561022a576040517f08c379a0000000000000000000000000000000000000000000000000000000008152600401808060200182810382526022815260200180620016856022913960400191505060405180910390fd5b8260000160008373ffffffffffffffffffffffffffffffffffffffff1673ffffffffffffffffffffffffffffffffffffffff16815260200190815260200160002060009054906101000a900460ff16905092915050565b6113f480620002916000396000f3fe608060405234801561001057600080fd5b50600436106100f55760003560e01c80634c5a628c116100975780639ea9c15c116100665780639ea9c15c1461060d578063bb5f747b1461065d578063d18e81b3146106b9578063d6cd9473146106d7576100f5565b80634c5a628c1461050e5780637362d9c814610518578063858dcf0f1461055c5780639899f4e6146105df576100f5565b8063114f00ab116100d3578063114f00ab1461026f57806323d1c95e1461031c578063291d95491461046e5780633af32abf146104b2576100f5565b8063013cf08b146100fa57806302b50aa91461020d57806310154bad1461022b575b600080fd5b6101266004803603602081101561011057600080fd5b81019080803590602001909291905050506106e1565b604051808060200180602001838103835285818151815260200191508051906020019080838360005b8381101561016a57808201518184015260208101905061014f565b50505050905090810190601f1680156101975780820380516001836020036101000a031916815260200191505b50838103825284818151815260200191508051906020019080838360005b838110156101d05780820151818401526020810190506101b5565b50505050905090810190601f1680156101fd5780820380516001836020036101000a031916815260200191505b5094505050505060405180910390f35b610215610842565b6040518082815260200191505060405180910390f35b61026d6004803603602081101561024157600080fd5b81019080803573ffffffffffffffffffffffffffffffffffffffff16906020019092919050505061084c565b005b6102a16004803603602081101561028557600080fd5b81019080803563ffffffff1690602001909291905050506108c8565b6040518080602001828103825283818151815260200191508051906020019080838360005b838110156102e15780820151818401526020810190506102c6565b50505050905090810190601f16801561030e5780820380516001836020036101000a031916815260200191505b509250505060405180910390f35b61046c6004803603604081101561033257600080fd5b810190808035906020019064010000000081111561034f57600080fd5b82018360208201111561036157600080fd5b8035906020019184600183028401116401000000008311171561038357600080fd5b91908080601f016020809104026020016040519081016040528093929190818152602001838380828437600081840152601f19601f820116905080830192505050505050509192919290803590602001906401000000008111156103e657600080fd5b8201836020820111156103f857600080fd5b8035906020019184600183028401116401000000008311171561041a57600080fd5b91908080601f016020809104026020016040519081016040528093929190818152602001838380828437600081840152601f19601f82011690508083019250505050505050919291929050505061098e565b005b6104b06004803603602081101561048457600080fd5b81019080803573ffffffffffffffffffffffffffffffffffffffff169060200190929190505050610a7b565b005b6104f4600480360360208110156104c857600080fd5b81019080803573ffffffffffffffffffffffffffffffffffffffff169060200190929190505050610ae5565b604051808215151515815260200191505060405180910390f35b610516610b02565b005b61055a6004803603602081101561052e57600080fd5b81019080803573ffffffffffffffffffffffffffffffffffffffff169060200190929190505050610b0d565b005b610564610b77565b6040518080602001828103825283818151815260200191508051906020019080838360005b838110156105a4578082015181840152602081019050610589565b50505050905090810190601f1680156105d15780820380516001836020036101000a031916815260200191505b509250505060405180910390f35b61060b600480360360208110156105f557600080fd5b8101908080359060200190929190505050610c8b565b005b6106436004803603604081101561062357600080fd5b810190808035906020019092919080359060200190929190505050610d23565b604051808215151515815260200191505060405180910390f35b61069f6004803603602081101561067357600080fd5b81019080803573ffffffffffffffffffffffffffffffffffffffff169060200190929190505050610dd4565b604051808215151515815260200191505060405180910390f35b6106c1610df1565b6040518082815260200191505060405180910390f35b6106df610df9565b005b600881815481106106ee57fe5b9060005260206000209060020201600091509050806000018054600181600116156101000203166002900480601f01602080910402602001604051908101604052809291908181526020018280546001816001161561010002031660029004801561079a5780601f1061076f5761010080835404028352916020019161079a565b820191906000526020600020905b81548152906001019060200180831161077d57829003601f168201915b505050505090806001018054600181600116156101000203166002900480601f0160208091040260200160405190810160405280929190818152602001828054600181600116156101000203166002900480156108385780601f1061080d57610100808354040283529160200191610838565b820191906000526020600020905b81548152906001019060200180831161081b57829003601f168201915b5050505050905082565b6000600754905090565b61085533610dd4565b6108aa576040517f08c379a000000000000000000000000000000000000000000000000000000000815260040180806020018281038252604081526020018061134f6040913960400191505060405180910390fd5b6108b381610e04565b60076000815480929190600101919050555050565b606060088263ffffffff16815481106108dd57fe5b90600052602060002090600202016000018054600181600116156101000203166002900480601f0160208091040260200160405190810160405280929190818152602001828054600181600116156101000203166002900480156109825780601f1061095757610100808354040283529160200191610982565b820191906000526020600020905b81548152906001019060200180831161096557829003601f168201915b50505050509050919050565b61099733610ae5565b6109ec576040517f08c379a000000000000000000000000000000000000000000000000000000000815260040180806020018281038252603a81526020018061138f603a913960400191505060405180910390fd5b6109f461124c565b6040518060400160405280848152602001838152509050600881908060018154018082558091505090600182039060005260206000209060020201600090919290919091506000820151816000019080519060200190610a55929190611266565b506020820151816001019080519060200190610a72929190611266565b50505050505050565b610a8433610dd4565b610ad9576040517f08c379a000000000000000000000000000000000000000000000000000000000815260040180806020018281038252604081526020018061134f6040913960400191505060405180910390fd5b610ae281610e6e565b50565b6000610afb826001610ec890919063ffffffff16565b9050919050565b610b0b33610fa6565b565b610b1633610dd4565b610b6b576040517f08c379a000000000000000000000000000000000000000000000000000000000815260040180806020018281038252604081526020018061134f6040913960400191505060405180910390fd5b610b7481611000565b50565b6060610b8233610dd4565b610bd7576040517f08c379a000000000000000000000000000000000000000000000000000000000815260040180806020018281038252604081526020018061134f6040913960400191505060405180910390fd5b600260009054906101000a900460ff168015610bf4575060035442115b8015610c0d5750600260065481610c0757fe5b04600754115b15610c4f576040518060400160405280601681526020017f4c6f74746572792063616e2062652064726166746564000000000000000000008152509050610c88565b6040518060400160405280601d81526020017f6c6f7474657279206472616674206973206e6f7420706f737369626c6500000081525090505b90565b610c9433610dd4565b610ce9576040517f08c379a000000000000000000000000000000000000000000000000000000000815260040180806020018281038252604081526020018061134f6040913960400191505060405180910390fd5b600560009054906101000a900460ff16610d20576001600560006101000a81548160ff021916908315150217905550806006819055505b50565b6000610d2e33610dd4565b610d83576040517f08c379a000000000000000000000000000000000000000000000000000000000815260040180806020018281038252604081526020018061134f6040913960400191505060405180910390fd5b600260009054906101000a900460ff16610dc95782600381905550816004819055506001600260006101000a81548160ff02191690831515021790555060019050610dce565b600090505b92915050565b6000610dea826000610ec890919063ffffffff16565b9050919050565b600042905090565b610e0233610e6e565b565b610e0d33610dd4565b610e62576040517f08c379a000000000000000000000000000000000000000000000000000000000815260040180806020018281038252604081526020018061134f6040913960400191505060405180910390fd5b610e6b8161105a565b50565b610e828160016110b490919063ffffffff16565b8073ffffffffffffffffffffffffffffffffffffffff167f270d9b30cf5b0793bbfd54c9d5b94aeb49462b8148399000265144a8722da6b660405160405180910390a250565b60008073ffffffffffffffffffffffffffffffffffffffff168273ffffffffffffffffffffffffffffffffffffffff161415610f4f576040517f08c379a000000000000000000000000000000000000000000000000000000000815260040180806020018281038252602281526020018061132d6022913960400191505060405180910390fd5b8260000160008373ffffffffffffffffffffffffffffffffffffffff1673ffffffffffffffffffffffffffffffffffffffff16815260200190815260200160002060009054906101000a900460ff16905092915050565b610fba8160006110b490919063ffffffff16565b8073ffffffffffffffffffffffffffffffffffffffff167f0a8eb35e5ca14b3d6f28e4abf2f128dbab231a58b56e89beb5d636115001e16560405160405180910390a250565b61101481600061117190919063ffffffff16565b8073ffffffffffffffffffffffffffffffffffffffff167f22380c05984257a1cb900161c713dd71d39e74820f1aea43bd3f1bdd2096129960405160405180910390a250565b61106e81600161117190919063ffffffff16565b8073ffffffffffffffffffffffffffffffffffffffff167fee1504a83b6d4a361f4c1dc78ab59bfa30d6a3b6612c403e86bb01ef2984295f60405160405180910390a250565b6110be8282610ec8565b611113576040517f08c379a000000000000000000000000000000000000000000000000000000000815260040180806020018281038252602181526020018061130c6021913960400191505060405180910390fd5b60008260000160008373ffffffffffffffffffffffffffffffffffffffff1673ffffffffffffffffffffffffffffffffffffffff16815260200190815260200160002060006101000a81548160ff0219169083151502179055505050565b61117b8282610ec8565b156111ee576040517f08c379a000000000000000000000000000000000000000000000000000000000815260040180806020018281038252601f8152602001807f526f6c65733a206163636f756e7420616c72656164792068617320726f6c650081525060200191505060405180910390fd5b60018260000160008373ffffffffffffffffffffffffffffffffffffffff1673ffffffffffffffffffffffffffffffffffffffff16815260200190815260200160002060006101000a81548160ff0219169083151502179055505050565b604051806040016040528060608152602001606081525090565b828054600181600116156101000203166002900490600052602060002090601f016020900481019282601f106112a757805160ff19168380011785556112d5565b828001600101855582156112d5579182015b828111156112d45782518255916020019190600101906112b9565b5b5090506112e291906112e6565b5090565b61130891905b808211156113045760008160009055506001016112ec565b5090565b9056fe526f6c65733a206163636f756e7420646f6573206e6f74206861766520726f6c65526f6c65733a206163636f756e7420697320746865207a65726f206164647265737357686974656c69737441646d696e526f6c653a2063616c6c657220646f6573206e6f742068617665207468652057686974656c69737441646d696e20726f6c6557686974656c6973746564526f6c653a2063616c6c657220646f6573206e6f742068617665207468652057686974656c697374656420726f6c65a165627a7a72305820f0d598ae5702204bcd2085b8f3a3ffbf7413f956d8ff6e6612368f1fffc3d3c40029526f6c65733a206163636f756e7420697320746865207a65726f2061646472657373",
  "source": "pragma solidity >=0.4.21 <0.6.0;\r\n\r\nimport \"openzeppelin-solidity/contracts/access/roles/WhitelistAdminRole.sol\";\r\nimport \"openzeppelin-solidity/contracts/access/roles/WhitelistedRole.sol\";\r\n\r\ncontract CommunityImprovement is WhitelistAdminRole, WhitelistedRole  {\r\n\r\n\t// Attributes\r\n\tbool lotteryActive;\r\n\tuint256 lotteryDraftEarliestExecution;\r\n\tuint256 lotteryDraftLatestExecution;\r\n\t\r\n\tbool communitySizeSet;\r\n\tuint256 communitySize;\r\n\tuint256 numberOfWhitelisted;\r\n\tenum Phase {one, two, three} // enum\r\n\t\r\n\tstruct Proposal{\r\n\t\tstring name;\r\n\t\tstring description;\r\n\t}\r\n\t\r\n\tProposal[] public proposals;\r\n\t\r\n\t\r\n\t// Methods\r\n\tconstructor() public {\r\n\t\tlotteryActive = false;\r\n\t\tnumberOfWhitelisted = 0;\r\n\t\tcommunitySizeSet = false;\r\n\t}\r\n\t\r\n\tfunction addProposal(string memory name, string memory description) public onlyWhitelisted{\r\n\t\tProposal memory newProposal = Proposal(name, description);\r\n\t\tproposals.push(newProposal);\r\n\t}\r\n\t\r\n\tfunction getProposal(uint32 index) public view returns (string memory){\r\n\t\t//Proposal memory newProposal = proposals[index];\r\n\t\treturn proposals[index].name;\r\n\t}\r\n\t\r\n\tfunction addWhitelisted(address account) public onlyWhitelistAdmin {\r\n        super.addWhitelisted(account);\r\n\t\tnumberOfWhitelisted++;\r\n    }\r\n\t\r\n\tfunction setCommunitySize(uint256 size) public onlyWhitelistAdmin {\r\n\t\tif (!communitySizeSet){\r\n\t\t\tcommunitySizeSet = true;\r\n\t\t\tcommunitySize = size;\r\n\t\t}\r\n\t}\r\n\t\r\n\tfunction getNumberOfWhitelisted() public view returns (uint256) {\r\n\t\treturn numberOfWhitelisted;\r\n\t}\r\n\t\r\n\t// this function should probably be combined with uploading the funds for the lottery\r\n\tfunction setLotteryTimeframe(uint256 start, uint256 end) public onlyWhitelistAdmin returns (bool){\r\n\t\tif (!lotteryActive){\r\n\t\t\tlotteryDraftEarliestExecution = start;\r\n\t\t\tlotteryDraftLatestExecution = end;\r\n\t\t\tlotteryActive = true;\r\n\t\t\treturn true;\r\n\t\t}\r\n\t\treturn false;\r\n\t}\r\n\t\r\n\tfunction currentTime() public view returns (uint256){\r\n\t\treturn now;\r\n\t}\r\n\t\r\n\tfunction lotteryDraft () public view onlyWhitelistAdmin returns (string memory){\r\n\t\tif (lotteryActive && now > lotteryDraftEarliestExecution && numberOfWhitelisted > (communitySize/2) ){\r\n\t\t\treturn 'Lottery can be drafted';\r\n\t\t}else{\r\n\t\t\treturn 'lottery draft is not possible';\r\n\t\t}\r\n\t}\r\n\t\r\n\t\r\n}",
  "sourcePath": "C:/Users/rlb/Documents/blockchain/WWF_BlockchainSummerSchool2019/contracts/CommunityImprovement.sol",
  "compiler": {
    "name": "solc",
    "version": "0.5.8+commit.23d335f2.Emscripten.clang"
  },
  "schemaVersion": "3.0.11",
  "updatedAt": "2019-08-15T13:26:29.592Z",
  "devdoc": {
    "methods": {}
  },
  "userdoc": {
    "methods": {}
  }
}