{
  "contractName": "CommunityImprovement",
  "abi": [
    {
      "constant": true,
      "inputs": [
        {
          "name": "",
          "type": "uint256"
        }
      ],
      "name": "proposals",
      "outputs": [
        {
          "name": "name",
          "type": "string"
        },
        {
          "name": "description",
          "type": "string"
        }
      ],
      "payable": false,
      "stateMutability": "view",
      "type": "function"
    },
    {
      "inputs": [],
      "payable": false,
      "stateMutability": "nonpayable",
      "type": "constructor"
    },
    {
      "constant": false,
      "inputs": [
        {
          "name": "citizen",
          "type": "address"
        }
      ],
      "name": "givePermission",
      "outputs": [],
      "payable": false,
      "stateMutability": "nonpayable",
      "type": "function"
    },
    {
      "constant": true,
      "inputs": [
        {
          "name": "index",
          "type": "uint256"
        }
      ],
      "name": "getWhitelist",
      "outputs": [
        {
          "name": "",
          "type": "address"
        }
      ],
      "payable": false,
      "stateMutability": "view",
      "type": "function"
    },
    {
      "constant": false,
      "inputs": [
        {
          "name": "name",
          "type": "string"
        },
        {
          "name": "description",
          "type": "string"
        }
      ],
      "name": "addProposal",
      "outputs": [],
      "payable": false,
      "stateMutability": "nonpayable",
      "type": "function"
    },
    {
      "constant": true,
      "inputs": [
        {
          "name": "index",
          "type": "uint32"
        }
      ],
      "name": "getProposal",
      "outputs": [
        {
          "name": "",
          "type": "string"
        }
      ],
      "payable": false,
      "stateMutability": "view",
      "type": "function"
    }
  ],
  "bytecode": "0x608060405234801561001057600080fd5b5033600160006101000a81548173ffffffffffffffffffffffffffffffffffffffff021916908373ffffffffffffffffffffffffffffffffffffffff1602179055506108c1806100616000396000f3fe608060405234801561001057600080fd5b50600436106100575760003560e01c8063013cf08b1461005c578063114f00ab1461016f57806323d1c95e1461021c5780633d391f701461036e57806396db752a146103b2575b600080fd5b6100886004803603602081101561007257600080fd5b8101908080359060200190929190505050610420565b604051808060200180602001838103835285818151815260200191508051906020019080838360005b838110156100cc5780820151818401526020810190506100b1565b50505050905090810190601f1680156100f95780820380516001836020036101000a031916815260200191505b50838103825284818151815260200191508051906020019080838360005b83811015610132578082015181840152602081019050610117565b50505050905090810190601f16801561015f5780820380516001836020036101000a031916815260200191505b5094505050505060405180910390f35b6101a16004803603602081101561018557600080fd5b81019080803563ffffffff169060200190929190505050610581565b6040518080602001828103825283818151815260200191508051906020019080838360005b838110156101e15780820151818401526020810190506101c6565b50505050905090810190601f16801561020e5780820380516001836020036101000a031916815260200191505b509250505060405180910390f35b61036c6004803603604081101561023257600080fd5b810190808035906020019064010000000081111561024f57600080fd5b82018360208201111561026157600080fd5b8035906020019184600183028401116401000000008311171561028357600080fd5b91908080601f016020809104026020016040519081016040528093929190818152602001838380828437600081840152601f19601f820116905080830192505050505050509192919290803590602001906401000000008111156102e657600080fd5b8201836020820111156102f857600080fd5b8035906020019184600183028401116401000000008311171561031a57600080fd5b91908080601f016020809104026020016040519081016040528093929190818152602001838380828437600081840152601f19601f820116905080830192505050505050509192919290505050610647565b005b6103b06004803603602081101561038457600080fd5b81019080803573ffffffffffffffffffffffffffffffffffffffff1690602001909291905050506106d6565b005b6103de600480360360208110156103c857600080fd5b8101908080359060200190929190505050610796565b604051808273ffffffffffffffffffffffffffffffffffffffff1673ffffffffffffffffffffffffffffffffffffffff16815260200191505060405180910390f35b6002818154811061042d57fe5b9060005260206000209060020201600091509050806000018054600181600116156101000203166002900480601f0160208091040260200160405190810160405280929190818152602001828054600181600116156101000203166002900480156104d95780601f106104ae576101008083540402835291602001916104d9565b820191906000526020600020905b8154815290600101906020018083116104bc57829003601f168201915b505050505090806001018054600181600116156101000203166002900480601f0160208091040260200160405190810160405280929190818152602001828054600181600116156101000203166002900480156105775780601f1061054c57610100808354040283529160200191610577565b820191906000526020600020905b81548152906001019060200180831161055a57829003601f168201915b5050505050905082565b606060028263ffffffff168154811061059657fe5b90600052602060002090600202016000018054600181600116156101000203166002900480601f01602080910402602001604051908101604052809291908181526020018280546001816001161561010002031660029004801561063b5780601f106106105761010080835404028352916020019161063b565b820191906000526020600020905b81548152906001019060200180831161061e57829003601f168201915b50505050509050919050565b61064f6107d6565b60405180604001604052808481526020018381525090506002819080600181540180825580915050906001820390600052602060002090600202016000909192909190915060008201518160000190805190602001906106b09291906107f0565b5060208201518160010190805190602001906106cd9291906107f0565b50505050505050565b600160009054906101000a900473ffffffffffffffffffffffffffffffffffffffff1673ffffffffffffffffffffffffffffffffffffffff163373ffffffffffffffffffffffffffffffffffffffff1614156107935760008190806001815401808255809150509060018203906000526020600020016000909192909190916101000a81548173ffffffffffffffffffffffffffffffffffffffff021916908373ffffffffffffffffffffffffffffffffffffffff160217905550505b50565b60008082815481106107a457fe5b9060005260206000200160009054906101000a900473ffffffffffffffffffffffffffffffffffffffff169050919050565b604051806040016040528060608152602001606081525090565b828054600181600116156101000203166002900490600052602060002090601f016020900481019282601f1061083157805160ff191683800117855561085f565b8280016001018555821561085f579182015b8281111561085e578251825591602001919060010190610843565b5b50905061086c9190610870565b5090565b61089291905b8082111561088e576000816000905550600101610876565b5090565b9056fea165627a7a72305820c9d0933cef26f09ce7d4aba0e02c6107b93fc2875a177189634ec5dc747270960029",
  "source": "pragma solidity >=0.4.21 <0.6.0;\r\n\r\nimport \"../node_modules/openzeppelin-solidity/contracts/access/Roles.sol\";\r\n\r\ncontract CommunityImprovement {\r\n\r\n\t// Attributes\r\n\taddress[] private whitelist;\r\n\taddress admin ;\r\n\tenum Phase {one, two, three} // enum\r\n\t\r\n\tstruct Proposal{\r\n\t\tstring name;\r\n\t\tstring description;\r\n\t}\r\n\t\r\n\tProposal[] public proposals;\r\n\t\r\n\t\r\n\t\r\n\t// Methods\r\n\tconstructor() public {\r\n\t\tadmin = msg.sender;\r\n\t}\r\n\t\r\n\tmodifier onlyAdmin() {\r\n        if (msg.sender == admin) _;\r\n    }\r\n\t\r\n\tmodifier onlyWhitelisted() {\r\n\t\t// search for address in whitelist\r\n\t\t// if exists in whitelist _;\r\n\r\n\t\t_;\r\n\t}\r\n\t\r\n\t\r\n\tfunction givePermission(address citizen) public onlyAdmin{\r\n\t\twhitelist.push(citizen);\r\n\t}\r\n\t\r\n\tfunction getWhitelist(uint256 index) public view returns (address) {\r\n\t// Check arraybounds\r\n\t\treturn whitelist[index];\r\n\t}\r\n\t\r\n\tfunction addProposal(string memory name, string memory description) public onlyWhitelisted{\r\n\t\tProposal memory newProposal = Proposal(name, description);\r\n\t\tproposals.push(newProposal);\r\n\t}\r\n\t\r\n\tfunction getProposal(uint32 index) public view returns (string memory){\r\n\t\t//Proposal memory newProposal = proposals[index];\r\n\t\treturn proposals[index].name;\r\n\t}\r\n\t\r\n}",
  "sourcePath": "C:/Users/an7651/Documents/GitHub/WWF_BlockchainSummerSchool2019/contracts/CommunityImprovement.sol",
  "compiler": {
    "name": "solc",
    "version": "0.5.8+commit.23d335f2.Emscripten.clang"
  },
  "schemaVersion": "3.0.11",
  "updatedAt": "2019-08-15T11:46:15.802Z",
  "devdoc": {
    "methods": {}
  },
  "userdoc": {
    "methods": {}
  }
}