{
  "contractName": "CommunityImprovement",
  "abi": [
    {
      "constant": true,
      "inputs": [
        {
          "name": "",
          "type": "uint256"
        }
      ],
      "name": "proposals",
      "outputs": [
        {
          "name": "name",
          "type": "string"
        },
        {
          "name": "description",
          "type": "string"
        }
      ],
      "payable": false,
      "stateMutability": "view",
      "type": "function"
    },
    {
      "constant": false,
      "inputs": [
        {
          "name": "account",
          "type": "address"
        }
      ],
      "name": "addWhitelisted",
      "outputs": [],
      "payable": false,
      "stateMutability": "nonpayable",
      "type": "function"
    },
    {
      "constant": false,
      "inputs": [
        {
          "name": "account",
          "type": "address"
        }
      ],
      "name": "removeWhitelisted",
      "outputs": [],
      "payable": false,
      "stateMutability": "nonpayable",
      "type": "function"
    },
    {
      "constant": true,
      "inputs": [
        {
          "name": "account",
          "type": "address"
        }
      ],
      "name": "isWhitelisted",
      "outputs": [
        {
          "name": "",
          "type": "bool"
        }
      ],
      "payable": false,
      "stateMutability": "view",
      "type": "function"
    },
    {
      "constant": false,
      "inputs": [],
      "name": "renounceWhitelistAdmin",
      "outputs": [],
      "payable": false,
      "stateMutability": "nonpayable",
      "type": "function"
    },
    {
      "constant": false,
      "inputs": [
        {
          "name": "account",
          "type": "address"
        }
      ],
      "name": "addWhitelistAdmin",
      "outputs": [],
      "payable": false,
      "stateMutability": "nonpayable",
      "type": "function"
    },
    {
      "constant": true,
      "inputs": [
        {
          "name": "account",
          "type": "address"
        }
      ],
      "name": "isWhitelistAdmin",
      "outputs": [
        {
          "name": "",
          "type": "bool"
        }
      ],
      "payable": false,
      "stateMutability": "view",
      "type": "function"
    },
    {
      "constant": false,
      "inputs": [],
      "name": "renounceWhitelisted",
      "outputs": [],
      "payable": false,
      "stateMutability": "nonpayable",
      "type": "function"
    },
    {
      "inputs": [],
      "payable": false,
      "stateMutability": "nonpayable",
      "type": "constructor"
    },
    {
      "anonymous": false,
      "inputs": [
        {
          "indexed": true,
          "name": "account",
          "type": "address"
        }
      ],
      "name": "WhitelistedAdded",
      "type": "event"
    },
    {
      "anonymous": false,
      "inputs": [
        {
          "indexed": true,
          "name": "account",
          "type": "address"
        }
      ],
      "name": "WhitelistedRemoved",
      "type": "event"
    },
    {
      "anonymous": false,
      "inputs": [
        {
          "indexed": true,
          "name": "account",
          "type": "address"
        }
      ],
      "name": "WhitelistAdminAdded",
      "type": "event"
    },
    {
      "anonymous": false,
      "inputs": [
        {
          "indexed": true,
          "name": "account",
          "type": "address"
        }
      ],
      "name": "WhitelistAdminRemoved",
      "type": "event"
    },
    {
      "constant": false,
      "inputs": [
        {
          "name": "name",
          "type": "string"
        },
        {
          "name": "description",
          "type": "string"
        }
      ],
      "name": "addProposal",
      "outputs": [],
      "payable": false,
      "stateMutability": "nonpayable",
      "type": "function"
    },
    {
      "constant": true,
      "inputs": [
        {
          "name": "index",
          "type": "uint32"
        }
      ],
      "name": "getProposal",
      "outputs": [
        {
          "name": "",
          "type": "string"
        }
      ],
      "payable": false,
      "stateMutability": "view",
      "type": "function"
    },
    {
      "constant": true,
      "inputs": [
        {
          "name": "index",
          "type": "uint32"
        }
      ],
      "name": "lotteryDraft",
      "outputs": [
        {
          "name": "",
          "type": "string"
        }
      ],
      "payable": false,
      "stateMutability": "view",
      "type": "function"
    },
    {
      "constant": true,
      "inputs": [],
      "name": "sayHello",
      "outputs": [
        {
          "name": "",
          "type": "uint256"
        }
      ],
      "payable": false,
      "stateMutability": "view",
      "type": "function"
    },
    {
      "constant": false,
      "inputs": [],
      "name": "random",
      "outputs": [],
      "payable": false,
      "stateMutability": "nonpayable",
      "type": "function"
    },
    {
      "constant": true,
      "inputs": [],
      "name": "getRandom",
      "outputs": [
        {
          "name": "",
          "type": "uint256"
        }
      ],
      "payable": false,
      "stateMutability": "view",
      "type": "function"
    }
  ],
  "bytecode": "0x608060405234801561001057600080fd5b506100203361002560201b60201c565b610242565b61003d81600061008360201b610ee71790919060201c565b8073ffffffffffffffffffffffffffffffffffffffff167f22380c05984257a1cb900161c713dd71d39e74820f1aea43bd3f1bdd2096129960405160405180910390a250565b610093828261016460201b60201c565b15610106576040517f08c379a000000000000000000000000000000000000000000000000000000000815260040180806020018281038252601f8152602001807f526f6c65733a206163636f756e7420616c72656164792068617320726f6c650081525060200191505060405180910390fd5b60018260000160008373ffffffffffffffffffffffffffffffffffffffff1673ffffffffffffffffffffffffffffffffffffffff16815260200190815260200160002060006101000a81548160ff0219169083151502179055505050565b60008073ffffffffffffffffffffffffffffffffffffffff168273ffffffffffffffffffffffffffffffffffffffff1614156101eb576040517f08c379a00000000000000000000000000000000000000000000000000000000081526004018080602001828103825260228152602001806114786022913960400191505060405180910390fd5b8260000160008373ffffffffffffffffffffffffffffffffffffffff1673ffffffffffffffffffffffffffffffffffffffff16815260200190815260200160002060009054906101000a900460ff16905092915050565b611227806102516000396000f3fe608060405234801561001057600080fd5b50600436106100ea5760003560e01c80634c5a628c1161008c578063aacc5a1711610066578063aacc5a17146105ea578063bb5f747b14610608578063d6cd947314610664578063ef5fb05b1461066e576100ea565b80634c5a628c146105925780635ec01e4d1461059c5780637362d9c8146105a6576100ea565b80631dbc4904116100c85780631dbc4904146102f357806323d1c95e146103a0578063291d9549146104f25780633af32abf14610536576100ea565b8063013cf08b146100ef57806310154bad14610202578063114f00ab14610246575b600080fd5b61011b6004803603602081101561010557600080fd5b810190808035906020019092919050505061068c565b604051808060200180602001838103835285818151815260200191508051906020019080838360005b8381101561015f578082015181840152602081019050610144565b50505050905090810190601f16801561018c5780820380516001836020036101000a031916815260200191505b50838103825284818151815260200191508051906020019080838360005b838110156101c55780820151818401526020810190506101aa565b50505050905090810190601f1680156101f25780820380516001836020036101000a031916815260200191505b5094505050505060405180910390f35b6102446004803603602081101561021857600080fd5b81019080803573ffffffffffffffffffffffffffffffffffffffff1690602001909291905050506107ed565b005b6102786004803603602081101561025c57600080fd5b81019080803563ffffffff169060200190929190505050610857565b6040518080602001828103825283818151815260200191508051906020019080838360005b838110156102b857808201518184015260208101905061029d565b50505050905090810190601f1680156102e55780820380516001836020036101000a031916815260200191505b509250505060405180910390f35b6103256004803603602081101561030957600080fd5b81019080803563ffffffff16906020019092919050505061091d565b6040518080602001828103825283818151815260200191508051906020019080838360005b8381101561036557808201518184015260208101905061034a565b50505050905090810190601f1680156103925780820380516001836020036101000a031916815260200191505b509250505060405180910390f35b6104f0600480360360408110156103b657600080fd5b81019080803590602001906401000000008111156103d357600080fd5b8201836020820111156103e557600080fd5b8035906020019184600183028401116401000000008311171561040757600080fd5b91908080601f016020809104026020016040519081016040528093929190818152602001838380828437600081840152601f19601f8201169050808301925050505050505091929192908035906020019064010000000081111561046a57600080fd5b82018360208201111561047c57600080fd5b8035906020019184600183028401116401000000008311171561049e57600080fd5b91908080601f016020809104026020016040519081016040528093929190818152602001838380828437600081840152601f19601f8201169050808301925050505050505091929192905050506109e3565b005b6105346004803603602081101561050857600080fd5b81019080803573ffffffffffffffffffffffffffffffffffffffff169060200190929190505050610ad0565b005b6105786004803603602081101561054c57600080fd5b81019080803573ffffffffffffffffffffffffffffffffffffffff169060200190929190505050610b3a565b604051808215151515815260200191505060405180910390f35b61059a610b57565b005b6105a4610b62565b005b6105e8600480360360208110156105bc57600080fd5b81019080803573ffffffffffffffffffffffffffffffffffffffff169060200190929190505050610bfd565b005b6105f2610c67565b6040518082815260200191505060405180910390f35b61064a6004803603602081101561061e57600080fd5b81019080803573ffffffffffffffffffffffffffffffffffffffff169060200190929190505050610c71565b604051808215151515815260200191505060405180910390f35b61066c610c8e565b005b610676610c99565b6040518082815260200191505060405180910390f35b6002818154811061069957fe5b9060005260206000209060020201600091509050806000018054600181600116156101000203166002900480601f0160208091040260200160405190810160405280929190818152602001828054600181600116156101000203166002900480156107455780601f1061071a57610100808354040283529160200191610745565b820191906000526020600020905b81548152906001019060200180831161072857829003601f168201915b505050505090806001018054600181600116156101000203166002900480601f0160208091040260200160405190810160405280929190818152602001828054600181600116156101000203166002900480156107e35780601f106107b8576101008083540402835291602001916107e3565b820191906000526020600020905b8154815290600101906020018083116107c657829003601f168201915b5050505050905082565b6107f633610c71565b61084b576040517f08c379a00000000000000000000000000000000000000000000000000000000081526004018080602001828103825260408152602001806111826040913960400191505060405180910390fd5b61085481610ca1565b50565b606060028263ffffffff168154811061086c57fe5b90600052602060002090600202016000018054600181600116156101000203166002900480601f0160208091040260200160405190810160405280929190818152602001828054600181600116156101000203166002900480156109115780601f106108e657610100808354040283529160200191610911565b820191906000526020600020905b8154815290600101906020018083116108f457829003601f168201915b50505050509050919050565b606060028263ffffffff168154811061093257fe5b90600052602060002090600202016000018054600181600116156101000203166002900480601f0160208091040260200160405190810160405280929190818152602001828054600181600116156101000203166002900480156109d75780601f106109ac576101008083540402835291602001916109d7565b820191906000526020600020905b8154815290600101906020018083116109ba57829003601f168201915b50505050509050919050565b6109ec33610b3a565b610a41576040517f08c379a000000000000000000000000000000000000000000000000000000000815260040180806020018281038252603a8152602001806111c2603a913960400191505060405180910390fd5b610a4961107f565b6040518060400160405280848152602001838152509050600281908060018154018082558091505090600182039060005260206000209060020201600090919290919091506000820151816000019080519060200190610aaa929190611099565b506020820151816001019080519060200190610ac7929190611099565b50505050505050565b610ad933610c71565b610b2e576040517f08c379a00000000000000000000000000000000000000000000000000000000081526004018080602001828103825260408152602001806111826040913960400191505060405180910390fd5b610b3781610cfb565b50565b6000610b50826001610d5590919063ffffffff16565b9050919050565b610b6033610e33565b565b600060644233600354604051602001808481526020018373ffffffffffffffffffffffffffffffffffffffff1673ffffffffffffffffffffffffffffffffffffffff1660601b815260140182815260200193505050506040516020818303038152906040528051906020012060001c81610bd857fe5b0690506000810190506003600081548092919060010191905055508060048190555050565b610c0633610c71565b610c5b576040517f08c379a00000000000000000000000000000000000000000000000000000000081526004018080602001828103825260408152602001806111826040913960400191505060405180910390fd5b610c6481610e8d565b50565b6000600454905090565b6000610c87826000610d5590919063ffffffff16565b9050919050565b610c9733610cfb565b565b600042905090565b610cb5816001610ee790919063ffffffff16565b8073ffffffffffffffffffffffffffffffffffffffff167fee1504a83b6d4a361f4c1dc78ab59bfa30d6a3b6612c403e86bb01ef2984295f60405160405180910390a250565b610d0f816001610fc290919063ffffffff16565b8073ffffffffffffffffffffffffffffffffffffffff167f270d9b30cf5b0793bbfd54c9d5b94aeb49462b8148399000265144a8722da6b660405160405180910390a250565b60008073ffffffffffffffffffffffffffffffffffffffff168273ffffffffffffffffffffffffffffffffffffffff161415610ddc576040517f08c379a00000000000000000000000000000000000000000000000000000000081526004018080602001828103825260228152602001806111606022913960400191505060405180910390fd5b8260000160008373ffffffffffffffffffffffffffffffffffffffff1673ffffffffffffffffffffffffffffffffffffffff16815260200190815260200160002060009054906101000a900460ff16905092915050565b610e47816000610fc290919063ffffffff16565b8073ffffffffffffffffffffffffffffffffffffffff167f0a8eb35e5ca14b3d6f28e4abf2f128dbab231a58b56e89beb5d636115001e16560405160405180910390a250565b610ea1816000610ee790919063ffffffff16565b8073ffffffffffffffffffffffffffffffffffffffff167f22380c05984257a1cb900161c713dd71d39e74820f1aea43bd3f1bdd2096129960405160405180910390a250565b610ef18282610d55565b15610f64576040517f08c379a000000000000000000000000000000000000000000000000000000000815260040180806020018281038252601f8152602001807f526f6c65733a206163636f756e7420616c72656164792068617320726f6c650081525060200191505060405180910390fd5b60018260000160008373ffffffffffffffffffffffffffffffffffffffff1673ffffffffffffffffffffffffffffffffffffffff16815260200190815260200160002060006101000a81548160ff0219169083151502179055505050565b610fcc8282610d55565b611021576040517f08c379a000000000000000000000000000000000000000000000000000000000815260040180806020018281038252602181526020018061113f6021913960400191505060405180910390fd5b60008260000160008373ffffffffffffffffffffffffffffffffffffffff1673ffffffffffffffffffffffffffffffffffffffff16815260200190815260200160002060006101000a81548160ff0219169083151502179055505050565b604051806040016040528060608152602001606081525090565b828054600181600116156101000203166002900490600052602060002090601f016020900481019282601f106110da57805160ff1916838001178555611108565b82800160010185558215611108579182015b828111156111075782518255916020019190600101906110ec565b5b5090506111159190611119565b5090565b61113b91905b8082111561113757600081600090555060010161111f565b5090565b9056fe526f6c65733a206163636f756e7420646f6573206e6f74206861766520726f6c65526f6c65733a206163636f756e7420697320746865207a65726f206164647265737357686974656c69737441646d696e526f6c653a2063616c6c657220646f6573206e6f742068617665207468652057686974656c69737441646d696e20726f6c6557686974656c6973746564526f6c653a2063616c6c657220646f6573206e6f742068617665207468652057686974656c697374656420726f6c65a165627a7a7230582028b49f8a2c74f94397909409d48f71fa7df8f07741ea9724acd6ed3bb84d53930029526f6c65733a206163636f756e7420697320746865207a65726f2061646472657373",
  "source": "pragma solidity >=0.4.21 <0.6.0;\r\n\r\nimport \"openzeppelin-solidity/contracts/access/roles/WhitelistAdminRole.sol\";\r\nimport \"openzeppelin-solidity/contracts/access/roles/WhitelistedRole.sol\";\r\n\r\ncontract CommunityImprovement is WhitelistAdminRole, WhitelistedRole  {\r\n\r\n\t// Attributes\r\n\tenum Phase {one, two, three} // enum\r\n\t\r\n\tstruct Proposal{\r\n\t\tstring name;\r\n\t\tstring description;\r\n\t}\r\n\t\r\n\tProposal[] public proposals;\r\n\t\r\n\t\r\n\t// Methods\r\n\tconstructor() public {\r\n\t\t\r\n\t}\r\n\t\r\n\tfunction addProposal(string memory name, string memory description) public onlyWhitelisted{\r\n\t\tProposal memory newProposal = Proposal(name, description);\r\n\t\tproposals.push(newProposal);\r\n\t}\r\n\t\r\n\tfunction getProposal(uint32 index) public view returns (string memory){\r\n\t\t//Proposal memory newProposal = proposals[index];\r\n\t\treturn proposals[index].name;\r\n\t}\r\n\t\r\n\tfunction lotteryDraft(uint32 index) public view returns (string memory){\r\n\t\t//Proposal memory newProposal = proposals[index];\r\n\t\treturn proposals[index].name;\r\n\t}\r\n\tfunction sayHello() public view returns(uint256){\r\n        return(now);\r\n    }\r\n\r\n\t/*function random(uint64 upper) public returns (uint64 randomNumber) {\r\n  \t_seed = uint64(sha3(sha3(block.blockhash(block.number), _seed), now));\r\n  \treturn _seed % upper;\r\n\t}*/\r\n\r\n\tuint nonce; \r\n\tuint256 randnum;\r\n\r\n\tfunction random() public {\r\n    uint256 randomnumber = uint256(keccak256(abi.encodePacked(now, msg.sender, nonce))) % 100;\r\n    randomnumber = randomnumber + 0;\r\n    nonce++;\r\n\r\n    randnum = randomnumber;\r\n\t}\r\n\r\n\tfunction getRandom() public view returns (uint256) {\r\n\t\treturn randnum;\r\n\t}\r\n}\r\n\r\n",
  "sourcePath": "C:/Users/an7651/Documents/GitHub/WWF_BlockchainSummerSchool2019/contracts/CommunityImprovement.sol",
  "compiler": {
    "name": "solc",
    "version": "0.5.8+commit.23d335f2.Emscripten.clang"
  },
  "schemaVersion": "3.0.11",
  "updatedAt": "2019-08-15T14:31:57.663Z",
  "devdoc": {
    "methods": {}
  },
  "userdoc": {
    "methods": {}
  }
}